{
  "contracts/MockPositionManager.sol": {
    "MockUniswapV3PositionManager": {
      "abi": [
        {
          "inputs": [
            {
              "internalType": "uint256",
              "name": "tokenId",
              "type": "uint256"
            }
          ],
          "name": "positions",
          "outputs": [
            {
              "internalType": "uint96",
              "name": "nonce",
              "type": "uint96"
            },
            {
              "internalType": "address",
              "name": "operator",
              "type": "address"
            },
            {
              "internalType": "address",
              "name": "token0",
              "type": "address"
            },
            {
              "internalType": "address",
              "name": "token1",
              "type": "address"
            },
            {
              "internalType": "uint24",
              "name": "fee",
              "type": "uint24"
            },
            {
              "internalType": "int24",
              "name": "tickLower",
              "type": "int24"
            },
            {
              "internalType": "int24",
              "name": "tickUpper",
              "type": "int24"
            },
            {
              "internalType": "uint128",
              "name": "liquidity",
              "type": "uint128"
            },
            {
              "internalType": "uint256",
              "name": "feeGrowthInside0LastX128",
              "type": "uint256"
            },
            {
              "internalType": "uint256",
              "name": "feeGrowthInside1LastX128",
              "type": "uint256"
            },
            {
              "internalType": "uint128",
              "name": "tokensOwed0",
              "type": "uint128"
            },
            {
              "internalType": "uint128",
              "name": "tokensOwed1",
              "type": "uint128"
            }
          ],
          "stateMutability": "pure",
          "type": "function"
        }
      ],
      "evm": {
        "bytecode": {
          "linkReferences": {},
          "object": "608060405234801561001057600080fd5b50610134806100206000396000f3fe6080604052348015600f57600080fd5b506004361060285760003560e01c806399fbab8814602d575b600080fd5b604760048036036020811015604157600080fd5b503560e2565b604080516bffffffffffffffffffffffff909d168d526001600160a01b039b8c1660208e0152998b168c8b01529790991660608b015262ffffff90951660808a0152600293840b60a08a01529190920b60c08801526fffffffffffffffffffffffffffffffff91821660e088015261010087015261012086019190915292831661014085015290911661016083015251908190036101800190f35b6000808080808080808080808091939597999b5091939597999b56fea2646970667358221220f269c78aed2028df7d3791b5eb53aa63e64bbcbf277537a589c369379eaf8d4564736f6c63430007060033",
          "opcodes": "PUSH1 0x80 PUSH1 0x40 MSTORE CALLVALUE DUP1 ISZERO PUSH2 0x10 JUMPI PUSH1 0x0 DUP1 REVERT JUMPDEST POP PUSH2 0x134 DUP1 PUSH2 0x20 PUSH1 0x0 CODECOPY PUSH1 0x0 RETURN INVALID PUSH1 0x80 PUSH1 0x40 MSTORE CALLVALUE DUP1 ISZERO PUSH1 0xF JUMPI PUSH1 0x0 DUP1 REVERT JUMPDEST POP PUSH1 0x4 CALLDATASIZE LT PUSH1 0x28 JUMPI PUSH1 0x0 CALLDATALOAD PUSH1 0xE0 SHR DUP1 PUSH4 0x99FBAB88 EQ PUSH1 0x2D JUMPI JUMPDEST PUSH1 0x0 DUP1 REVERT JUMPDEST PUSH1 0x47 PUSH1 0x4 DUP1 CALLDATASIZE SUB PUSH1 0x20 DUP2 LT ISZERO PUSH1 0x41 JUMPI PUSH1 0x0 DUP1 REVERT JUMPDEST POP CALLDATALOAD PUSH1 0xE2 JUMP JUMPDEST PUSH1 0x40 DUP1 MLOAD PUSH12 0xFFFFFFFFFFFFFFFFFFFFFFFF SWAP1 SWAP14 AND DUP14 MSTORE PUSH1 0x1 PUSH1 0x1 PUSH1 0xA0 SHL SUB SWAP12 DUP13 AND PUSH1 0x20 DUP15 ADD MSTORE SWAP10 DUP12 AND DUP13 DUP12 ADD MSTORE SWAP8 SWAP1 SWAP10 AND PUSH1 0x60 DUP12 ADD MSTORE PUSH3 0xFFFFFF SWAP1 SWAP6 AND PUSH1 0x80 DUP11 ADD MSTORE PUSH1 0x2 SWAP4 DUP5 SIGNEXTEND PUSH1 0xA0 DUP11 ADD MSTORE SWAP2 SWAP1 SWAP3 SIGNEXTEND PUSH1 0xC0 DUP9 ADD MSTORE PUSH16 0xFFFFFFFFFFFFFFFFFFFFFFFFFFFFFFFF SWAP2 DUP3 AND PUSH1 0xE0 DUP9 ADD MSTORE PUSH2 0x100 DUP8 ADD MSTORE PUSH2 0x120 DUP7 ADD SWAP2 SWAP1 SWAP2 MSTORE SWAP3 DUP4 AND PUSH2 0x140 DUP6 ADD MSTORE SWAP1 SWAP2 AND PUSH2 0x160 DUP4 ADD MSTORE MLOAD SWAP1 DUP2 SWAP1 SUB PUSH2 0x180 ADD SWAP1 RETURN JUMPDEST PUSH1 0x0 DUP1 DUP1 DUP1 DUP1 DUP1 DUP1 DUP1 DUP1 DUP1 DUP1 DUP1 SWAP2 SWAP4 SWAP6 SWAP8 SWAP10 SWAP12 POP SWAP2 SWAP4 SWAP6 SWAP8 SWAP10 SWAP12 JUMP INVALID LOG2 PUSH5 0x6970667358 0x22 SLT KECCAK256 CALLCODE PUSH10 0xC78AED2028DF7D3791B5 0xEB MSTORE8 0xAA PUSH4 0xE64BBCBF 0x27 PUSH22 0x37A589C369379EAF8D4564736F6C6343000706003300 "
        },
        "methodIdentifiers": {
          "positions(uint256)": "99fbab88"
        }
      }
    }
  }
}