{
  "_format": "hh-sol-artifact-1",
  "contractName": "MockRateOracle",
  "sourceName": "contracts/MockOracle.sol",
  "abi": [
    {
      "inputs": [
        {
          "internalType": "uint256",
          "name": "initialPrice",
          "type": "uint256"
        }
      ],
      "stateMutability": "nonpayable",
      "type": "constructor"
    },
    {
      "inputs": [
        {
          "internalType": "address",
          "name": "asset",
          "type": "address"
        }
      ],
      "name": "getRate",
      "outputs": [
        {
          "internalType": "uint256",
          "name": "",
          "type": "uint256"
        },
        {
          "internalType": "uint256",
          "name": "",
          "type": "uint256"
        }
      ],
      "stateMutability": "view",
      "type": "function"
    },
    {
      "inputs": [
        {
          "internalType": "address",
          "name": "asset",
          "type": "address"
        },
        {
          "internalType": "uint256",
          "name": "price",
          "type": "uint256"
        }
      ],
      "name": "setPrice",
      "outputs": [],
      "stateMutability": "nonpayable",
      "type": "function"
    }
  ],
  "bytecode": "0x608060405234801561001057600080fd5b506040516101b33803806101b38339818101604052602081101561003357600080fd5b5051600080527fad3228b676f7d3cd4284a5443f17f1962b36e491b30a40b2405849e597ba5fb5556001602052427fa6eef7e35abe7026729641147f7915573c7e97b47efa546f5f6e3230263bcb4955610121806100926000396000f3fe6080604052348015600f57600080fd5b506004361060315760003560e01c8062e4768b14603657806337cef791146061575b600080fd5b605f60048036036040811015604a57600080fd5b506001600160a01b038135169060200135609d565b005b608460048036036020811015607557600080fd5b50356001600160a01b031660c5565b6040805192835260208301919091528051918290030190f35b6001600160a01b03909116600090815260208181526040808320939093556001905220429055565b6001600160a01b031660009081526020818152604080832054600190925290912054909156fea2646970667358221220217672a2a1c638073950ceafa4906c5af6473d93e0f526a0e051c237a2c34bfa64736f6c63430007060033",
  "linkReferences": {},
  "deployedLinkReferences": {}
}