{
  "_format": "hh-sol-artifact-1",
  "contractName": "MockUniswapV3PositionManager",
  "sourceName": "contracts/MockPositionManager.sol",
  "abi": [
    {
      "inputs": [
        {
          "internalType": "uint256",
          "name": "tokenId",
          "type": "uint256"
        }
      ],
      "name": "positions",
      "outputs": [
        {
          "internalType": "uint96",
          "name": "nonce",
          "type": "uint96"
        },
        {
          "internalType": "address",
          "name": "operator",
          "type": "address"
        },
        {
          "internalType": "address",
          "name": "token0",
          "type": "address"
        },
        {
          "internalType": "address",
          "name": "token1",
          "type": "address"
        },
        {
          "internalType": "uint24",
          "name": "fee",
          "type": "uint24"
        },
        {
          "internalType": "int24",
          "name": "tickLower",
          "type": "int24"
        },
        {
          "internalType": "int24",
          "name": "tickUpper",
          "type": "int24"
        },
        {
          "internalType": "uint128",
          "name": "liquidity",
          "type": "uint128"
        },
        {
          "internalType": "uint256",
          "name": "feeGrowthInside0LastX128",
          "type": "uint256"
        },
        {
          "internalType": "uint256",
          "name": "feeGrowthInside1LastX128",
          "type": "uint256"
        },
        {
          "internalType": "uint128",
          "name": "tokensOwed0",
          "type": "uint128"
        },
        {
          "internalType": "uint128",
          "name": "tokensOwed1",
          "type": "uint128"
        }
      ],
      "stateMutability": "pure",
      "type": "function"
    }
  ],
  "bytecode": "0x608060405234801561001057600080fd5b50610134806100206000396000f3fe6080604052348015600f57600080fd5b506004361060285760003560e01c806399fbab8814602d575b600080fd5b604760048036036020811015604157600080fd5b503560e2565b604080516bffffffffffffffffffffffff909d168d526001600160a01b039b8c1660208e0152998b168c8b01529790991660608b015262ffffff90951660808a0152600293840b60a08a01529190920b60c08801526fffffffffffffffffffffffffffffffff91821660e088015261010087015261012086019190915292831661014085015290911661016083015251908190036101800190f35b6000808080808080808080808091939597999b5091939597999b56fea2646970667358221220f269c78aed2028df7d3791b5eb53aa63e64bbcbf277537a589c369379eaf8d4564736f6c63430007060033",
  "linkReferences": {},
  "deployedLinkReferences": {}
}