{
  "_format": "hh-sol-artifact-1",
  "contractName": "DerivativeVault",
  "sourceName": "contracts/uniswapV3LP.sol",
  "abi": [
    {
      "inputs": [
        {
          "internalType": "address",
          "name": "_liquidityManager",
          "type": "address"
        },
        {
          "internalType": "address",
          "name": "_rateOracle",
          "type": "address"
        }
      ],
      "stateMutability": "nonpayable",
      "type": "constructor"
    },
    {
      "anonymous": false,
      "inputs": [
        {
          "indexed": true,
          "internalType": "address",
          "name": "derivativeToken",
          "type": "address"
        },
        {
          "indexed": true,
          "internalType": "address",
          "name": "creator",
          "type": "address"
        },
        {
          "indexed": false,
          "internalType": "address",
          "name": "collateralAsset",
          "type": "address"
        },
        {
          "indexed": false,
          "internalType": "uint256",
          "name": "exercisePrice",
          "type": "uint256"
        },
        {
          "indexed": false,
          "internalType": "uint256",
          "name": "expiryTime",
          "type": "uint256"
        },
        {
          "indexed": false,
          "internalType": "bool",
          "name": "isBuyOption",
          "type": "bool"
        },
        {
          "indexed": false,
          "internalType": "uint256",
          "name": "issueAmount",
          "type": "uint256"
        }
      ],
      "name": "OptionCreated",
      "type": "event"
    },
    {
      "anonymous": false,
      "inputs": [
        {
          "indexed": true,
          "internalType": "address",
          "name": "derivativeToken",
          "type": "address"
        },
        {
          "indexed": true,
          "internalType": "address",
          "name": "user",
          "type": "address"
        },
        {
          "indexed": false,
          "internalType": "uint256",
          "name": "earnings",
          "type": "uint256"
        }
      ],
      "name": "OptionExercised",
      "type": "event"
    },
    {
      "anonymous": false,
      "inputs": [
        {
          "indexed": true,
          "internalType": "address",
          "name": "newOracle",
          "type": "address"
        }
      ],
      "name": "OracleUpdated",
      "type": "event"
    },
    {
      "anonymous": false,
      "inputs": [
        {
          "indexed": true,
          "internalType": "address",
          "name": "previousOwner",
          "type": "address"
        },
        {
          "indexed": true,
          "internalType": "address",
          "name": "newOwner",
          "type": "address"
        }
      ],
      "name": "OwnershipTransferred",
      "type": "event"
    },
    {
      "inputs": [
        {
          "internalType": "address",
          "name": "derivativeToken",
          "type": "address"
        }
      ],
      "name": "cleanupExpiredOptions",
      "outputs": [],
      "stateMutability": "nonpayable",
      "type": "function"
    },
    {
      "inputs": [
        {
          "internalType": "address",
          "name": "",
          "type": "address"
        }
      ],
      "name": "derivativeRecords",
      "outputs": [
        {
          "internalType": "address",
          "name": "derivativeToken",
          "type": "address"
        },
        {
          "internalType": "address",
          "name": "collateralAsset",
          "type": "address"
        },
        {
          "internalType": "uint256",
          "name": "exercisePrice",
          "type": "uint256"
        },
        {
          "internalType": "uint256",
          "name": "expiryTime",
          "type": "uint256"
        },
        {
          "internalType": "bool",
          "name": "isBuyOption",
          "type": "bool"
        },
        {
          "internalType": "bool",
          "name": "exercised",
          "type": "bool"
        },
        {
          "internalType": "uint256",
          "name": "collateralAmount",
          "type": "uint256"
        }
      ],
      "stateMutability": "view",
      "type": "function"
    },
    {
      "inputs": [
        {
          "internalType": "address",
          "name": "user",
          "type": "address"
        },
        {
          "internalType": "uint256",
          "name": "amount",
          "type": "uint256"
        }
      ],
      "name": "exerciseOption",
      "outputs": [],
      "stateMutability": "nonpayable",
      "type": "function"
    },
    {
      "inputs": [
        {
          "internalType": "address",
          "name": "collateralAsset",
          "type": "address"
        },
        {
          "internalType": "uint256",
          "name": "exercisePrice",
          "type": "uint256"
        },
        {
          "internalType": "uint256",
          "name": "expiryTime",
          "type": "uint256"
        },
        {
          "internalType": "bool",
          "name": "isBuyOption",
          "type": "bool"
        },
        {
          "internalType": "uint256",
          "name": "issueAmount",
          "type": "uint256"
        }
      ],
      "name": "generateOptions",
      "outputs": [],
      "stateMutability": "nonpayable",
      "type": "function"
    },
    {
      "inputs": [
        {
          "internalType": "address",
          "name": "user",
          "type": "address"
        }
      ],
      "name": "getUserDerivativeToken",
      "outputs": [
        {
          "internalType": "address",
          "name": "",
          "type": "address"
        }
      ],
      "stateMutability": "view",
      "type": "function"
    },
    {
      "inputs": [],
      "name": "liquidityManager",
      "outputs": [
        {
          "internalType": "contract INonfungiblePositionManager",
          "name": "",
          "type": "address"
        }
      ],
      "stateMutability": "view",
      "type": "function"
    },
    {
      "inputs": [],
      "name": "owner",
      "outputs": [
        {
          "internalType": "address",
          "name": "",
          "type": "address"
        }
      ],
      "stateMutability": "view",
      "type": "function"
    },
    {
      "inputs": [],
      "name": "rateOracle",
      "outputs": [
        {
          "internalType": "contract IRateOracle",
          "name": "",
          "type": "address"
        }
      ],
      "stateMutability": "view",
      "type": "function"
    },
    {
      "inputs": [],
      "name": "renounceOwnership",
      "outputs": [],
      "stateMutability": "nonpayable",
      "type": "function"
    },
    {
      "inputs": [
        {
          "internalType": "address",
          "name": "newOwner",
          "type": "address"
        }
      ],
      "name": "transferOwnership",
      "outputs": [],
      "stateMutability": "nonpayable",
      "type": "function"
    },
    {
      "inputs": [
        {
          "internalType": "address",
          "name": "_rateOracle",
          "type": "address"
        }
      ],
      "name": "updateOracle",
      "outputs": [],
      "stateMutability": "nonpayable",
      "type": "function"
    },
    {
      "inputs": [
        {
          "internalType": "address",
          "name": "",
          "type": "address"
        }
      ],
      "name": "userDerivativeTokens",
      "outputs": [
        {
          "internalType": "address",
          "name": "",
          "type": "address"
        }
      ],
      "stateMutability": "view",
      "type": "function"
    },
    {
      "inputs": [
        {
          "internalType": "address",
          "name": "",
          "type": "address"
        }
      ],
      "name": "validatedOracles",
      "outputs": [
        {
          "internalType": "bool",
          "name": "",
          "type": "bool"
        }
      ],
      "stateMutability": "view",
      "type": "function"
    }
  ],
  "bytecode": "0x60a06040523480156200001157600080fd5b50604051620031633803806200316383398101604081905262000034916200015a565b60006200004062000139565b600080546001600160a01b0319166001600160a01b0383169081178255604051929350917f8be0079c531659141344cd1fd0a4f28419497f9722a3daafe3b4186f6b6457e0908290a350600180556001600160a01b038216620000c05760405162461bcd60e51b8152600401620000b79062000191565b60405180910390fd5b6001600160a01b038116620000e95760405162461bcd60e51b8152600401620000b790620001ba565b60609190911b6001600160601b031916608052600280546001600160a01b0319166001600160a01b0390921691821790556000908152600560205260409020805460ff19166001179055620001e2565b3390565b80516001600160a01b03811681146200015557600080fd5b919050565b600080604083850312156200016d578182fd5b62000178836200013d565b915062000188602084016200013d565b90509250929050565b6020808252600f908201526e24b73b30b634b21036b0b730b3b2b960891b604082015260600190565b6020808252600e908201526d496e76616c6964206f7261636c6560901b604082015260600190565b60805160601c612f63620002006000398061038d5250612f636000f3fe60806040523480156200001157600080fd5b5060043610620000e25760003560e01c8063653028e011620000995780637a178c1f116200006f5780637a178c1f14620001da5780638da5cb5b14620001f157806398f4b1b214620001fb578063f2fde38b146200020557620000e2565b8063653028e014620001a257806367842b8214620001b9578063715018a614620001d057620000e2565b806307f122af14620000e75780631cb44dfc146200011c578063328bf8fe146200013557806333827438146200015b5780633a50b5401462000174578063582427b6146200018b575b600080fd5b620000fe620000f836600462001180565b6200021c565b60405162000113979695949392919062001305565b60405180910390f35b620001336200012d36600462001180565b6200026b565b005b6200014c6200014636600462001180565b62000376565b60405162000113919062001377565b620001656200038b565b604051620001139190620012d8565b620001336200018536600462001180565b620003af565b620001656200019c36600462001180565b6200050a565b62000133620001b3366004620011c9565b62000525565b62000133620001ca3660046200119d565b620007ea565b6200013362000df6565b62000165620001eb36600462001180565b62000eb9565b6200016562000eda565b6200016562000ee9565b620001336200021636600462001180565b62000ef8565b60036020819052600091825260409091208054600182015460028301549383015460048401546005909401546001600160a01b03938416959390921693909160ff808316926101009004169087565b6200027562001013565b6001600160a01b03166200028862000eda565b6001600160a01b031614620002e4576040805162461bcd60e51b815260206004820181905260248201527f4f776e61626c653a2063616c6c6572206973206e6f7420746865206f776e6572604482015290519081900360640190fd5b6001600160a01b038116620003165760405162461bcd60e51b81526004016200030d9062001610565b60405180910390fd5b600280546001600160a01b0319166001600160a01b038316908117909155600081815260056020526040808220805460ff19166001179055517f3df77beb5db05fcdd70a30fc8adf3f83f9501b68579455adbd100b81809403949190a250565b60056020526000908152604090205460ff1681565b7f000000000000000000000000000000000000000000000000000000000000000081565b6001600160a01b0380821660009081526003602052604090208054909116620003ec5760405162461bcd60e51b81526004016200030d9062001666565b80600301544211620004125760405162461bcd60e51b81526004016200030d9062001382565b6004810154610100900460ff16806200042e5750806003015442115b6200044d5760405162461bcd60e51b81526004016200030d90620014ed565b600080805260046020527f17ef568e3e12ab5b9c7254a8d58478811de00f9e6eb34345acd53bf8fd09d3ec546001600160a01b0384811691161415620004b4576001600160a01b038116600090815260046020526040902080546001600160a01b03191690555b50506001600160a01b03166000908152600360208190526040822080546001600160a01b0319908116825560018201805490911690556002810183905590810182905560048101805461ffff1916905560050155565b6004602052600090815260409020546001600160a01b031681565b600260015414156200057e576040805162461bcd60e51b815260206004820152601f60248201527f5265656e7472616e637947756172643a207265656e7472616e742063616c6c00604482015290519081900360640190fd5b60026001556001600160a01b038516620005ac5760405162461bcd60e51b81526004016200030d9062001438565b60008411620005cf5760405162461bcd60e51b81526004016200030d9062001401565b428311620005f15760405162461bcd60e51b81526004016200030d90620014c5565b60008111620006145760405162461bcd60e51b81526004016200030d9062001695565b60008585858560405162000628906200115a565b62000637949392919062001577565b604051809103906000f08015801562000654573d6000803e3d6000fd5b506040805160e0810182526001600160a01b038084168083528a821660208085019182528486018c8152606086018c81528b151560808801908152600060a0890181815260c08a018e815288835260038088528c84209b518c54908c166001600160a01b0319918216178d55985160018d01805491909c16908a1617909a55945160028b01559251978901979097555160048089018054935115156101000261ff001993151560ff1990951694909417929092169290921790559051600590960195909555338085529085905292859020805490911682179055925163475a9fa960e01b8152939450919263475a9fa99262000755929091879101620012ec565b600060405180830381600087803b1580156200077057600080fd5b505af115801562000785573d6000803e3d6000fd5b50505050336001600160a01b0316816001600160a01b03167f33ea2fb37c02fb07b7a42210fcf090729e630a0eecc582fd9449259c257dcecf8888888888604051620007d695949392919062001347565b60405180910390a350506001805550505050565b6002600154141562000843576040805162461bcd60e51b815260206004820152601f60248201527f5265656e7472616e637947756172643a207265656e7472616e742063616c6c00604482015290519081900360640190fd5b60026001556001600160a01b038083166000908152600460205260409020541680620008835760405162461bcd60e51b81526004016200030d906200146f565b6001600160a01b03811660009081526003602052604090206004810154610100900460ff1615620008c85760405162461bcd60e51b81526004016200030d90620015e5565b80600301544210620008ee5760405162461bcd60e51b81526004016200030d906200154f565b6040516370a0823160e01b8152829084906001600160a01b038316906370a082319062000920903390600401620012d8565b60206040518083038186803b1580156200093957600080fd5b505afa1580156200094e573d6000803e3d6000fd5b505050506040513d601f19601f820116820180604052508101906200097491906200123c565b1015620009955760405162461bcd60e51b81526004016200030d9062001497565b60025460018301546040516337cef79160e01b815260009283926001600160a01b03918216926337cef79192620009d1921690600401620012d8565b604080518083038186803b158015620009e957600080fd5b505afa158015620009fe573d6000803e3d6000fd5b505050506040513d601f19601f8201168201806040525081019062000a24919062001255565b6002546001600160a01b0316600090815260056020526040902054919350915060ff1662000a665760405162461bcd60e51b81526004016200030d9062001638565b610708814203111562000a8d5760405162461bcd60e51b81526004016200030d90620013d7565b60018401546040805163313ce56760e01b815290516000926001600160a01b03169163313ce567916004808301926020929190829003018186803b15801562000ad557600080fd5b505afa15801562000aea573d6000803e3d6000fd5b505050506040513d601f19601f8201168201806040525081019062000b10919062001279565b600486015490915060ff808316600a0a91600091161562000b5457866002015485111562000b4e57818988600201548703028162000b4a57fe5b0490505b62000b77565b866002015485101562000b7757818986896002015403028162000b7357fe5b0490505b6000866001600160a01b03166318160ddd6040518163ffffffff1660e01b815260040160206040518083038186803b15801562000bb357600080fd5b505afa15801562000bc8573d6000803e3d6000fd5b505050506040513d601f19601f8201168201806040525081019062000bee91906200123c565b8a8960050154028162000bfd57fe5b04905080821162000c0f578162000c11565b805b600189015490925062000c2f906001600160a01b0316338462001017565b62000c4e5760405162461bcd60e51b81526004016200030d90620013ae565b60405163390d1be960e11b81526001600160a01b0388169063721a37d29062000c7e9033908e90600401620012ec565b600060405180830381600087803b15801562000c9957600080fd5b505af115801562000cae573d6000803e3d6000fd5b50505050866001600160a01b03166318160ddd6040518163ffffffff1660e01b815260040160206040518083038186803b15801562000cec57600080fd5b505afa15801562000d01573d6000803e3d6000fd5b505050506040513d601f19601f8201168201806040525081019062000d2791906200123c565b62000d98576004808901805461ff001916610100179055604080516368a5c49760e01b815290516001600160a01b038a16926368a5c4979280820192600092909182900301818387803b15801562000d7e57600080fd5b505af115801562000d93573d6000803e3d6000fd5b505050505b336001600160a01b0316896001600160a01b03167f52ff7e64f208cfde8aee30c94c263920816ec81166a452ec84af280596381daf8460405162000ddd9190620016cc565b60405180910390a3505060018055505050505050505050565b62000e0062001013565b6001600160a01b031662000e1362000eda565b6001600160a01b03161462000e6f576040805162461bcd60e51b815260206004820181905260248201527f4f776e61626c653a2063616c6c6572206973206e6f7420746865206f776e6572604482015290519081900360640190fd5b600080546040516001600160a01b03909116907f8be0079c531659141344cd1fd0a4f28419497f9722a3daafe3b4186f6b6457e0908390a3600080546001600160a01b0319169055565b6001600160a01b03808216600090815260046020526040902054165b919050565b6000546001600160a01b031690565b6002546001600160a01b031681565b62000f0262001013565b6001600160a01b031662000f1562000eda565b6001600160a01b03161462000f71576040805162461bcd60e51b815260206004820181905260248201527f4f776e61626c653a2063616c6c6572206973206e6f7420746865206f776e6572604482015290519081900360640190fd5b6001600160a01b03811662000fb85760405162461bcd60e51b815260040180806020018281038252602681526020018062002f086026913960400191505060405180910390fd5b600080546040516001600160a01b03808516939216917f8be0079c531659141344cd1fd0a4f28419497f9722a3daafe3b4186f6b6457e091a3600080546001600160a01b0319166001600160a01b0392909216919091179055565b3390565b600081620010285750600162001153565b6001600160a01b038316620010515760405162461bcd60e51b81526004016200030d9062001524565b600080856001600160a01b031663a9059cbb60e01b86866040516024016200107b929190620012ec565b60408051601f198184030181529181526020820180516001600160e01b03166001600160e01b0319909416939093179092529051620010bb91906200129c565b6000604051808303816000865af19150503d8060008114620010fa576040519150601f19603f3d011682016040523d82523d6000602084013e620010ff565b606091505b50915091508180156200112d5750805115806200112d5750808060200190518101906200112d91906200121d565b6200114c5760405162461bcd60e51b81526004016200030d90620013ae565b6001925050505b9392505050565b61182080620016e883390190565b80356001600160a01b038116811462000ed557600080fd5b60006020828403121562001192578081fd5b620011538262001168565b60008060408385031215620011b0578081fd5b620011bb8362001168565b946020939093013593505050565b600080600080600060a08688031215620011e1578081fd5b620011ec8662001168565b9450602086013593506040860135925060608601356200120c81620016d5565b949793965091946080013592915050565b6000602082840312156200122f578081fd5b81516200115381620016d5565b6000602082840312156200124e578081fd5b5051919050565b6000806040838503121562001268578182fd5b505080516020909101519092909150565b6000602082840312156200128b578081fd5b815160ff8116811462001153578182fd5b60008251815b81811015620012be5760208186018101518583015201620012a2565b81811115620012cd5782828501525b509190910192915050565b6001600160a01b0391909116815260200190565b6001600160a01b03929092168252602082015260400190565b6001600160a01b0397881681529590961660208601526040850193909352606084019190915215156080830152151560a082015260c081019190915260e00190565b6001600160a01b039590951685526020850193909352604084019190915215156060830152608082015260a00190565b901515815260200190565b60208082526012908201527113dc1d1a5bdb881b9bdd08195e1c1a5c995960721b604082015260600190565b6020808252600f908201526e151c985b9cd9995c8819985a5b1959608a1b604082015260600190565b60208082526010908201526f5374616c65207072696365206461746160801b604082015260600190565b6020808252601f908201527f4578657263697365207072696365206d75737420626520706f73697469766500604082015260600190565b60208082526018908201527f496e76616c696420636f6c6c61746572616c2061737365740000000000000000604082015260600190565b6020808252600e908201526d24b73b30b634b21037b83a34b7b760911b604082015260600190565b602080825260149082015273496e73756666696369656e742062616c616e636560601b604082015260600190565b6020808252600e908201526d496e76616c69642065787069727960901b604082015260600190565b6020808252601a908201527f43616e6e6f7420636c65616e20616374697665206f7074696f6e000000000000604082015260600190565b602080825260119082015270125b9d985b1a59081c9958da5c1a595b9d607a1b604082015260600190565b6020808252600e908201526d13dc1d1a5bdb88195e1c1a5c995960921b604082015260600190565b60c0808252601190820152702232b934bb30ba34bb329027b83a34b7b760791b60e0820152610100602082018190526003908201526213d41560ea1b6101208201526001600160a01b0394909416604085015260608401929092526080830152151560a08201526101400190565b602080825260119082015270105b1c9958591e48195e195c98da5cd959607a1b604082015260600190565b6020808252600e908201526d496e76616c6964206f7261636c6560901b604082015260600190565b60208082526014908201527313dc9858db19481b9bdd081d985b1a59185d195960621b604082015260600190565b60208082526015908201527413dc1d1a5bdb88191bd95cc81b9bdd08195e1a5cdd605a1b604082015260600190565b60208082526017908201527f416d6f756e74206d75737420626520706f736974697665000000000000000000604082015260600190565b90815260200190565b8015158114620016e457600080fd5b5056fe6101206040523480156200001257600080fd5b5060405162001820380380620018208339810160408190526200003591620002d7565b8551869086906200004e90600390602085019062000190565b5080516200006490600490602084019062000190565b50506005805460ff19166012179055506000620000806200018c565b60058054610100600160a81b0319166101006001600160a01b03841690810291909117909155604051919250906000907f8be0079c531659141344cd1fd0a4f28419497f9722a3daafe3b4186f6b6457e0908290a3506001600160a01b038416620001085760405162461bcd60e51b8152600401620000ff90620003c3565b60405180910390fd5b600083116200012b5760405162461bcd60e51b8152600401620000ff906200038c565b4282116200014d5760405162461bcd60e51b8152600401620000ff90620003fa565b6001600160601b0319606094851b1660805260a09290925260c052151560f81b60e05233901b6101005250506005805460ff60a81b1916905562000431565b3390565b828054600181600116156101000203166002900490600052602060002090601f016020900481019282620001c8576000855562000213565b82601f10620001e357805160ff191683800117855562000213565b8280016001018555821562000213579182015b8281111562000213578251825591602001919060010190620001f6565b506200022192915062000225565b5090565b5b8082111562000221576000815560010162000226565b600082601f8301126200024d578081fd5b81516001600160401b03808211156200026257fe5b6040516020601f8401601f19168201810183811183821017156200028257fe5b604052838252858401810187101562000299578485fd5b8492505b83831015620002bc57858301810151828401820152918201916200029d565b83831115620002cd57848185840101525b5095945050505050565b60008060008060008060c08789031215620002f0578182fd5b86516001600160401b038082111562000307578384fd5b620003158a838b016200023c565b975060208901519150808211156200032b578384fd5b506200033a89828a016200023c565b604089015190965090506001600160a01b038116811462000359578283fd5b80945050606087015192506080870151915060a087015180151581146200037e578182fd5b809150509295509295509295565b6020808252601f908201527f4578657263697365207072696365206d75737420626520706f73697469766500604082015260600190565b60208082526018908201527f496e76616c696420636f6c6c61746572616c2061737365740000000000000000604082015260600190565b6020808252601c908201527f457870697279206d75737420626520696e207468652066757475726500000000604082015260600190565b60805160601c60a05160c05160e05160f81c6101005160601c61139c62000484600039806102c6525080610a4f52508061051652806105ef52806108525250806107a95250806108f2525061139c6000f3fe608060405234801561001057600080fd5b506004361061014d5760003560e01c8063721a37d2116100c3578063a457c2d71161007c578063a457c2d714610268578063a9059cbb1461027b578063aabaecd61461028e578063dd62ed3e14610296578063f2fde38b146102a9578063f71979bd146102bc5761014d565b8063721a37d21461022d5780638117889a146102405780638da5cb5b1461024857806392fe281a1461025057806395d89b411461025857806399bc0aea146102605761014d565b8063313ce56711610115578063313ce567146101cd57806339509351146101e2578063475a9fa9146101f557806368a5c4971461020a57806370a0823114610212578063715018a6146102255761014d565b806302d05d3f1461015257806306fdde0314610170578063095ea7b31461018557806318160ddd146101a557806323b872dd146101ba575b600080fd5b61015a6102c4565b60405161016791906110c9565b60405180910390f35b6101786102e8565b60405161016791906110e8565b6101986101933660046110a0565b61037e565b60405161016791906110dd565b6101ad61039b565b60405161016791906111c5565b6101986101c8366004611065565b6103a1565b6101d5610428565b60405161016791906111ce565b6101986101f03660046110a0565b610431565b6102086102033660046110a0565b61047f565b005b610208610561565b6101ad610220366004611019565b61066a565b610208610689565b61020861023b3660046110a0565b61073b565b6101ad6107a7565b61015a6107cb565b6101986107df565b6101786107ef565b6101ad610850565b6101986102763660046110a0565b610874565b6101986102893660046110a0565b6108dc565b61015a6108f0565b6101ad6102a4366004611033565b610914565b6102086102b7366004611019565b61093f565b610198610a4d565b7f000000000000000000000000000000000000000000000000000000000000000081565b60038054604080516020601f60026000196101006001881615020190951694909404938401819004810282018101909252828152606093909290918301828280156103745780601f1061034957610100808354040283529160200191610374565b820191906000526020600020905b81548152906001019060200180831161035757829003601f168201915b5050505050905090565b600061039261038b610a71565b8484610a75565b50600192915050565b60025490565b60006103ae848484610b61565b61041e846103ba610a71565b61041985604051806060016040528060288152602001611290602891396001600160a01b038a166000908152600160205260408120906103f8610a71565b6001600160a01b031681526020810191909152604001600020549190610cbc565b610a75565b5060019392505050565b60055460ff1690565b600061039261043e610a71565b84610419856001600061044f610a71565b6001600160a01b03908116825260208083019390935260409182016000908120918c168152925290205490610d53565b610487610a71565b6001600160a01b03166104986107cb565b6001600160a01b0316146104e1576040805162461bcd60e51b815260206004820181905260248201526000805160206112b8833981519152604482015290519081900360640190fd5b600554600160a81b900460ff16156105145760405162461bcd60e51b815260040161050b9061113b565b60405180910390fd5b7f000000000000000000000000000000000000000000000000000000000000000042106105535760405162461bcd60e51b815260040161050b90611172565b61055d8282610db4565b5050565b610569610a71565b6001600160a01b031661057a6107cb565b6001600160a01b0316146105c3576040805162461bcd60e51b815260206004820181905260248201526000805160206112b8833981519152604482015290519081900360640190fd5b600554600160a81b900460ff16156105ed5760405162461bcd60e51b815260040161050b9061119a565b7f0000000000000000000000000000000000000000000000000000000000000000421061062c5760405162461bcd60e51b815260040161050b90611172565b6005805460ff60a81b1916600160a81b1790556040517f841f30b75b734e79bd5564b636a7dac06016c458113586c9a310fdd91d6a6eea90600090a1565b6001600160a01b0381166000908152602081905260409020545b919050565b610691610a71565b6001600160a01b03166106a26107cb565b6001600160a01b0316146106eb576040805162461bcd60e51b815260206004820181905260248201526000805160206112b8833981519152604482015290519081900360640190fd5b60055460405160009161010090046001600160a01b0316907f8be0079c531659141344cd1fd0a4f28419497f9722a3daafe3b4186f6b6457e0908390a360058054610100600160a81b0319169055565b610743610a71565b6001600160a01b03166107546107cb565b6001600160a01b03161461079d576040805162461bcd60e51b815260206004820181905260248201526000805160206112b8833981519152604482015290519081900360640190fd5b61055d8282610ea4565b7f000000000000000000000000000000000000000000000000000000000000000081565b60055461010090046001600160a01b031690565b600554600160a81b900460ff1681565b60048054604080516020601f60026000196101006001881615020190951694909404938401819004810282018101909252828152606093909290918301828280156103745780601f1061034957610100808354040283529160200191610374565b7f000000000000000000000000000000000000000000000000000000000000000081565b6000610392610881610a71565b846104198560405180606001604052806025815260200161134260259139600160006108ab610a71565b6001600160a01b03908116825260208083019390935260409182016000908120918d16815292529020549190610cbc565b60006103926108e9610a71565b8484610b61565b7f000000000000000000000000000000000000000000000000000000000000000081565b6001600160a01b03918216600090815260016020908152604080832093909416825291909152205490565b610947610a71565b6001600160a01b03166109586107cb565b6001600160a01b0316146109a1576040805162461bcd60e51b815260206004820181905260248201526000805160206112b8833981519152604482015290519081900360640190fd5b6001600160a01b0381166109e65760405162461bcd60e51b81526004018080602001828103825260268152602001806112226026913960400191505060405180910390fd5b6005546040516001600160a01b0380841692610100900416907f8be0079c531659141344cd1fd0a4f28419497f9722a3daafe3b4186f6b6457e090600090a3600580546001600160a01b0390921661010002610100600160a81b0319909216919091179055565b7f000000000000000000000000000000000000000000000000000000000000000081565b3390565b6001600160a01b038316610aba5760405162461bcd60e51b815260040180806020018281038252602481526020018061131e6024913960400191505060405180910390fd5b6001600160a01b038216610aff5760405162461bcd60e51b81526004018080602001828103825260228152602001806112486022913960400191505060405180910390fd5b6001600160a01b03808416600081815260016020908152604080832094871680845294825291829020859055815185815291517f8c5be1e5ebec7d5bd14f71427d1e84f3dd0314c0f7b2291e5b200ac8c7c3b9259281900390910190a3505050565b6001600160a01b038316610ba65760405162461bcd60e51b81526004018080602001828103825260258152602001806112f96025913960400191505060405180910390fd5b6001600160a01b038216610beb5760405162461bcd60e51b81526004018080602001828103825260238152602001806111dd6023913960400191505060405180910390fd5b610bf6838383610fa0565b610c338160405180606001604052806026815260200161126a602691396001600160a01b0386166000908152602081905260409020549190610cbc565b6001600160a01b038085166000908152602081905260408082209390935590841681522054610c629082610d53565b6001600160a01b038084166000818152602081815260409182902094909455805185815290519193928716927fddf252ad1be2c89b69c2b068fc378daa952ba7f163c4a11628f55a4df523b3ef92918290030190a3505050565b60008184841115610d4b5760405162461bcd60e51b81526004018080602001828103825283818151815260200191508051906020019080838360005b83811015610d10578181015183820152602001610cf8565b50505050905090810190601f168015610d3d5780820380516001836020036101000a031916815260200191505b509250505060405180910390fd5b505050900390565b600082820183811015610dad576040805162461bcd60e51b815260206004820152601b60248201527f536166654d6174683a206164646974696f6e206f766572666c6f770000000000604482015290519081900360640190fd5b9392505050565b6001600160a01b038216610e0f576040805162461bcd60e51b815260206004820152601f60248201527f45524332303a206d696e7420746f20746865207a65726f206164647265737300604482015290519081900360640190fd5b610e1b60008383610fa0565b600254610e289082610d53565b6002556001600160a01b038216600090815260208190526040902054610e4e9082610d53565b6001600160a01b0383166000818152602081815260408083209490945583518581529351929391927fddf252ad1be2c89b69c2b068fc378daa952ba7f163c4a11628f55a4df523b3ef9281900390910190a35050565b6001600160a01b038216610ee95760405162461bcd60e51b81526004018080602001828103825260218152602001806112d86021913960400191505060405180910390fd5b610ef582600083610fa0565b610f3281604051806060016040528060228152602001611200602291396001600160a01b0385166000908152602081905260409020549190610cbc565b6001600160a01b038316600090815260208190526040902055600254610f589082610fa5565b6002556040805182815290516000916001600160a01b038516917fddf252ad1be2c89b69c2b068fc378daa952ba7f163c4a11628f55a4df523b3ef9181900360200190a35050565b505050565b600082821115610ffc576040805162461bcd60e51b815260206004820152601e60248201527f536166654d6174683a207375627472616374696f6e206f766572666c6f770000604482015290519081900360640190fd5b50900390565b80356001600160a01b038116811461068457600080fd5b60006020828403121561102a578081fd5b610dad82611002565b60008060408385031215611045578081fd5b61104e83611002565b915061105c60208401611002565b90509250929050565b600080600060608486031215611079578081fd5b61108284611002565b925061109060208501611002565b9150604084013590509250925092565b600080604083850312156110b2578182fd5b6110bb83611002565b946020939093013593505050565b6001600160a01b0391909116815260200190565b901515815260200190565b6000602080835283518082850152825b81811015611114578581018301518582016040015282016110f8565b818111156111255783604083870101525b50601f01601f1916929092016040019392505050565b60208082526018908201527f4f7074696f6e20616c7265616479206578657263697365640000000000000000604082015260600190565b6020808252600e908201526d13dc1d1a5bdb88195e1c1a5c995960921b604082015260600190565b602080825260119082015270105b1c9958591e48195e195c98da5cd959607a1b604082015260600190565b90815260200190565b60ff9190911681526020019056fe45524332303a207472616e7366657220746f20746865207a65726f206164647265737345524332303a206275726e20616d6f756e7420657863656564732062616c616e63654f776e61626c653a206e6577206f776e657220697320746865207a65726f206164647265737345524332303a20617070726f766520746f20746865207a65726f206164647265737345524332303a207472616e7366657220616d6f756e7420657863656564732062616c616e636545524332303a207472616e7366657220616d6f756e74206578636565647320616c6c6f77616e63654f776e61626c653a2063616c6c6572206973206e6f7420746865206f776e657245524332303a206275726e2066726f6d20746865207a65726f206164647265737345524332303a207472616e736665722066726f6d20746865207a65726f206164647265737345524332303a20617070726f76652066726f6d20746865207a65726f206164647265737345524332303a2064656372656173656420616c6c6f77616e63652062656c6f77207a65726fa2646970667358221220fe681d7cc7be9d13502d261b623540e50a1ca57f6e6980ff05151b0601c89cde64736f6c634300070600334f776e61626c653a206e6577206f776e657220697320746865207a65726f2061646472657373a26469706673582212200ff8e6d299b2fbb188e79780dc1ab7c424b9fc701b563df9d8fd0d1a61683e9964736f6c63430007060033",
  "linkReferences": {},
  "deployedLinkReferences": {}
}