{
  "_format": "hh-sol-artifact-1",
  "contractName": "DerivativeVault",
  "sourceName": "contracts/uniswapV3LP.sol",
  "abi": [
    {
      "inputs": [
        {
          "internalType": "address",
          "name": "_liquidityManager",
          "type": "address"
        },
        {
          "internalType": "address",
          "name": "_rateOracle",
          "type": "address"
        }
      ],
      "stateMutability": "nonpayable",
      "type": "constructor"
    },
    {
      "anonymous": false,
      "inputs": [
        {
          "indexed": true,
          "internalType": "address",
          "name": "derivativeToken",
          "type": "address"
        },
        {
          "indexed": true,
          "internalType": "address",
          "name": "creator",
          "type": "address"
        },
        {
          "indexed": false,
          "internalType": "address",
          "name": "collateralAsset",
          "type": "address"
        },
        {
          "indexed": false,
          "internalType": "uint256",
          "name": "exercisePrice",
          "type": "uint256"
        },
        {
          "indexed": false,
          "internalType": "uint256",
          "name": "expiryTime",
          "type": "uint256"
        },
        {
          "indexed": false,
          "internalType": "bool",
          "name": "isBuyOption",
          "type": "bool"
        },
        {
          "indexed": false,
          "internalType": "uint256",
          "name": "issueAmount",
          "type": "uint256"
        }
      ],
      "name": "OptionCreated",
      "type": "event"
    },
    {
      "anonymous": false,
      "inputs": [
        {
          "indexed": true,
          "internalType": "address",
          "name": "derivativeToken",
          "type": "address"
        },
        {
          "indexed": true,
          "internalType": "address",
          "name": "user",
          "type": "address"
        },
        {
          "indexed": false,
          "internalType": "uint256",
          "name": "earnings",
          "type": "uint256"
        }
      ],
      "name": "OptionExercised",
      "type": "event"
    },
    {
      "anonymous": false,
      "inputs": [
        {
          "indexed": true,
          "internalType": "address",
          "name": "newOracle",
          "type": "address"
        }
      ],
      "name": "OracleUpdated",
      "type": "event"
    },
    {
      "anonymous": false,
      "inputs": [
        {
          "indexed": true,
          "internalType": "address",
          "name": "previousOwner",
          "type": "address"
        },
        {
          "indexed": true,
          "internalType": "address",
          "name": "newOwner",
          "type": "address"
        }
      ],
      "name": "OwnershipTransferred",
      "type": "event"
    },
    {
      "inputs": [
        {
          "internalType": "address",
          "name": "derivativeToken",
          "type": "address"
        }
      ],
      "name": "cleanupExpiredOptions",
      "outputs": [],
      "stateMutability": "nonpayable",
      "type": "function"
    },
    {
      "inputs": [
        {
          "internalType": "address",
          "name": "",
          "type": "address"
        }
      ],
      "name": "derivativeRecords",
      "outputs": [
        {
          "internalType": "address",
          "name": "derivativeToken",
          "type": "address"
        },
        {
          "internalType": "address",
          "name": "collateralAsset",
          "type": "address"
        },
        {
          "internalType": "uint256",
          "name": "exercisePrice",
          "type": "uint256"
        },
        {
          "internalType": "uint256",
          "name": "expiryTime",
          "type": "uint256"
        },
        {
          "internalType": "bool",
          "name": "isBuyOption",
          "type": "bool"
        },
        {
          "internalType": "bool",
          "name": "exercised",
          "type": "bool"
        },
        {
          "internalType": "uint256",
          "name": "collateralAmount",
          "type": "uint256"
        },
        {
          "internalType": "address",
          "name": "poolAddress",
          "type": "address"
        }
      ],
      "stateMutability": "view",
      "type": "function"
    },
    {
      "inputs": [
        {
          "internalType": "address",
          "name": "user",
          "type": "address"
        },
        {
          "internalType": "uint256",
          "name": "amount",
          "type": "uint256"
        }
      ],
      "name": "exerciseOption",
      "outputs": [],
      "stateMutability": "nonpayable",
      "type": "function"
    },
    {
      "inputs": [
        {
          "internalType": "address",
          "name": "collateralAsset",
          "type": "address"
        },
        {
          "internalType": "uint256",
          "name": "exercisePrice",
          "type": "uint256"
        },
        {
          "internalType": "uint256",
          "name": "expiryTime",
          "type": "uint256"
        },
        {
          "internalType": "bool",
          "name": "isBuyOption",
          "type": "bool"
        },
        {
          "internalType": "uint256",
          "name": "issueAmount",
          "type": "uint256"
        },
        {
          "internalType": "address",
          "name": "poolAddress",
          "type": "address"
        }
      ],
      "name": "generateOptions",
      "outputs": [],
      "stateMutability": "nonpayable",
      "type": "function"
    },
    {
      "inputs": [
        {
          "internalType": "address",
          "name": "user",
          "type": "address"
        }
      ],
      "name": "getUserDerivativeToken",
      "outputs": [
        {
          "internalType": "address",
          "name": "",
          "type": "address"
        }
      ],
      "stateMutability": "view",
      "type": "function"
    },
    {
      "inputs": [
        {
          "internalType": "address",
          "name": "user",
          "type": "address"
        }
      ],
      "name": "getUserExercises",
      "outputs": [
        {
          "components": [
            {
              "internalType": "address",
              "name": "derivativeToken",
              "type": "address"
            },
            {
              "internalType": "address",
              "name": "collateralAsset",
              "type": "address"
            },
            {
              "internalType": "uint256",
              "name": "exercisePrice",
              "type": "uint256"
            },
            {
              "internalType": "uint256",
              "name": "expiryTime",
              "type": "uint256"
            },
            {
              "internalType": "bool",
              "name": "isBuyOption",
              "type": "bool"
            },
            {
              "internalType": "bool",
              "name": "exercised",
              "type": "bool"
            },
            {
              "internalType": "uint256",
              "name": "collateralAmount",
              "type": "uint256"
            },
            {
              "internalType": "address",
              "name": "poolAddress",
              "type": "address"
            }
          ],
          "internalType": "struct DerivativeVault.DerivativeInfo[]",
          "name": "",
          "type": "tuple[]"
        }
      ],
      "stateMutability": "view",
      "type": "function"
    },
    {
      "inputs": [],
      "name": "liquidityManager",
      "outputs": [
        {
          "internalType": "contract INonfungiblePositionManager",
          "name": "",
          "type": "address"
        }
      ],
      "stateMutability": "view",
      "type": "function"
    },
    {
      "inputs": [],
      "name": "owner",
      "outputs": [
        {
          "internalType": "address",
          "name": "",
          "type": "address"
        }
      ],
      "stateMutability": "view",
      "type": "function"
    },
    {
      "inputs": [],
      "name": "rateOracle",
      "outputs": [
        {
          "internalType": "contract IRateOracle",
          "name": "",
          "type": "address"
        }
      ],
      "stateMutability": "view",
      "type": "function"
    },
    {
      "inputs": [],
      "name": "renounceOwnership",
      "outputs": [],
      "stateMutability": "nonpayable",
      "type": "function"
    },
    {
      "inputs": [
        {
          "internalType": "address",
          "name": "newOwner",
          "type": "address"
        }
      ],
      "name": "transferOwnership",
      "outputs": [],
      "stateMutability": "nonpayable",
      "type": "function"
    },
    {
      "inputs": [
        {
          "internalType": "address",
          "name": "_rateOracle",
          "type": "address"
        }
      ],
      "name": "updateOracle",
      "outputs": [],
      "stateMutability": "nonpayable",
      "type": "function"
    },
    {
      "inputs": [
        {
          "internalType": "address",
          "name": "",
          "type": "address"
        }
      ],
      "name": "userDerivativeTokens",
      "outputs": [
        {
          "internalType": "address",
          "name": "",
          "type": "address"
        }
      ],
      "stateMutability": "view",
      "type": "function"
    },
    {
      "inputs": [
        {
          "internalType": "address",
          "name": "",
          "type": "address"
        }
      ],
      "name": "validatedOracles",
      "outputs": [
        {
          "internalType": "bool",
          "name": "",
          "type": "bool"
        }
      ],
      "stateMutability": "view",
      "type": "function"
    }
  ],
  "bytecode": "0x60a06040523480156200001157600080fd5b50604051620035513803806200355183398101604081905262000034916200015a565b60006200004062000139565b600080546001600160a01b0319166001600160a01b0383169081178255604051929350917f8be0079c531659141344cd1fd0a4f28419497f9722a3daafe3b4186f6b6457e0908290a350600180556001600160a01b038216620000c05760405162461bcd60e51b8152600401620000b79062000191565b60405180910390fd5b6001600160a01b038116620000e95760405162461bcd60e51b8152600401620000b790620001ba565b60609190911b6001600160601b031916608052600280546001600160a01b0319166001600160a01b0390921691821790556000908152600560205260409020805460ff19166001179055620001e2565b3390565b80516001600160a01b03811681146200015557600080fd5b919050565b600080604083850312156200016d578182fd5b62000178836200013d565b915062000188602084016200013d565b90509250929050565b6020808252600f908201526e24b73b30b634b21036b0b730b3b2b960891b604082015260600190565b6020808252600e908201526d496e76616c6964206f7261636c6560901b604082015260600190565b60805160601c61335162000200600039806103dc52506133516000f3fe60806040523480156200001157600080fd5b5060043610620001005760003560e01c806367842b8211620000995780638da5cb5b116200006f5780638da5cb5b146200021f57806398f4b1b21462000229578063cae9e9bf1462000233578063f2fde38b146200024a5762000100565b806367842b8214620001e7578063715018a614620001fe5780637a178c1f14620002085762000100565b80633382743811620000db57806333827438146200017a578063353a8c9c14620001935780633a50b54014620001b9578063582427b614620001d05762000100565b806307f122af14620001055780631cb44dfc146200013b578063328bf8fe1462000154575b600080fd5b6200011c620001163660046200148b565b62000261565b6040516200013298979695949392919062001636565b60405180910390f35b620001526200014c3660046200148b565b620002ba565b005b6200016b620001653660046200148b565b620003c5565b60405162000132919062001765565b62000184620003da565b60405162000132919062001609565b620001aa620001a43660046200148b565b620003fe565b604051620001329190620016ae565b62000152620001ca3660046200148b565b62000586565b62000184620001e13660046200148b565b620006f0565b62000152620001f8366004620014a8565b6200070b565b6200015262000d17565b62000184620002193660046200148b565b62000dda565b6200018462000df8565b6200018462000e07565b6200015262000244366004620014d4565b62000e16565b620001526200025b3660046200148b565b620011bf565b600360208190526000918252604090912080546001820154600283015493830154600484015460058501546006909501546001600160a01b0394851696938516959394929360ff80841694610100909404169290911688565b620002c4620012da565b6001600160a01b0316620002d762000df8565b6001600160a01b03161462000333576040805162461bcd60e51b815260206004820181905260248201527f4f776e61626c653a2063616c6c6572206973206e6f7420746865206f776e6572604482015290519081900360640190fd5b6001600160a01b038116620003655760405162461bcd60e51b81526004016200035c90620019fe565b60405180910390fd5b600280546001600160a01b0319166001600160a01b038316908117909155600081815260056020526040808220805460ff19166001179055517f3df77beb5db05fcdd70a30fc8adf3f83f9501b68579455adbd100b81809403949190a250565b60056020526000908152604090205460ff1681565b7f000000000000000000000000000000000000000000000000000000000000000081565b60606000805b6103e881101562000440576001600160a01b03848116600090815260046020526040902054161562000437576001909101905b60010162000404565b5060008167ffffffffffffffff811180156200045b57600080fd5b506040519080825280602002602001820160405280156200049957816020015b6200048562001421565b8152602001906001900390816200047b5790505b5090506000805b6103e88110156200057a576001600160a01b0380871660009081526004602052604090205416801562000570576001600160a01b03808216600090815260036020818152604092839020835161010080820186528254871682526001830154871693820193909352600282015494810194909452918201546060840152600482015460ff8082161515608086015291900416151560a0830152600581015460c08301526006015490911660e082015284518590859081106200055e57fe5b60209081029190910101526001909201915b50600101620004a0565b5090925050505b919050565b6001600160a01b0380821660009081526003602052604090208054909116620005c35760405162461bcd60e51b81526004016200035c9062001a54565b80600301544211620005e95760405162461bcd60e51b81526004016200035c9062001770565b6004810154610100900460ff1680620006055750806003015442115b620006245760405162461bcd60e51b81526004016200035c90620018db565b600080805260046020527f17ef568e3e12ab5b9c7254a8d58478811de00f9e6eb34345acd53bf8fd09d3ec546001600160a01b03848116911614156200068b576001600160a01b038116600090815260046020526040902080546001600160a01b03191690555b50506001600160a01b03166000908152600360208190526040822080546001600160a01b03199081168255600182018054821690556002820184905591810183905560048101805461ffff191690556005810192909255600690910180549091169055565b6004602052600090815260409020546001600160a01b031681565b6002600154141562000764576040805162461bcd60e51b815260206004820152601f60248201527f5265656e7472616e637947756172643a207265656e7472616e742063616c6c00604482015290519081900360640190fd5b60026001556001600160a01b038083166000908152600460205260409020541680620007a45760405162461bcd60e51b81526004016200035c906200185d565b6001600160a01b03811660009081526003602052604090206004810154610100900460ff1615620007e95760405162461bcd60e51b81526004016200035c90620019d3565b806003015442106200080f5760405162461bcd60e51b81526004016200035c906200193d565b6040516370a0823160e01b8152829084906001600160a01b038316906370a08231906200084190339060040162001609565b60206040518083038186803b1580156200085a57600080fd5b505afa1580156200086f573d6000803e3d6000fd5b505050506040513d601f19601f820116820180604052508101906200089591906200155a565b1015620008b65760405162461bcd60e51b81526004016200035c9062001885565b60025460068301546040516337cef79160e01b815260009283926001600160a01b03918216926337cef79192620008f292169060040162001609565b604080518083038186803b1580156200090a57600080fd5b505afa1580156200091f573d6000803e3d6000fd5b505050506040513d601f19601f8201168201806040525081019062000945919062001573565b6002546001600160a01b0316600090815260056020526040902054919350915060ff16620009875760405162461bcd60e51b81526004016200035c9062001a26565b6107088142031115620009ae5760405162461bcd60e51b81526004016200035c90620017c5565b60018401546040805163313ce56760e01b815290516000926001600160a01b03169163313ce567916004808301926020929190829003018186803b158015620009f657600080fd5b505afa15801562000a0b573d6000803e3d6000fd5b505050506040513d601f19601f8201168201806040525081019062000a31919062001597565b600486015490915060ff808316600a0a91600091161562000a7557866002015485111562000a6f57818988600201548703028162000a6b57fe5b0490505b62000a98565b866002015485101562000a9857818986896002015403028162000a9457fe5b0490505b6000866001600160a01b03166318160ddd6040518163ffffffff1660e01b815260040160206040518083038186803b15801562000ad457600080fd5b505afa15801562000ae9573d6000803e3d6000fd5b505050506040513d601f19601f8201168201806040525081019062000b0f91906200155a565b8a8960050154028162000b1e57fe5b04905080821162000b30578162000b32565b805b600189015490925062000b50906001600160a01b03163384620012de565b62000b6f5760405162461bcd60e51b81526004016200035c906200179c565b60405163390d1be960e11b81526001600160a01b0388169063721a37d29062000b9f9033908e906004016200161d565b600060405180830381600087803b15801562000bba57600080fd5b505af115801562000bcf573d6000803e3d6000fd5b50505050866001600160a01b03166318160ddd6040518163ffffffff1660e01b815260040160206040518083038186803b15801562000c0d57600080fd5b505afa15801562000c22573d6000803e3d6000fd5b505050506040513d601f19601f8201168201806040525081019062000c4891906200155a565b62000cb9576004808901805461ff001916610100179055604080516368a5c49760e01b815290516001600160a01b038a16926368a5c4979280820192600092909182900301818387803b15801562000c9f57600080fd5b505af115801562000cb4573d6000803e3d6000fd5b505050505b336001600160a01b0316896001600160a01b03167f52ff7e64f208cfde8aee30c94c263920816ec81166a452ec84af280596381daf8460405162000cfe919062001aba565b60405180910390a3505060018055505050505050505050565b62000d21620012da565b6001600160a01b031662000d3462000df8565b6001600160a01b03161462000d90576040805162461bcd60e51b815260206004820181905260248201527f4f776e61626c653a2063616c6c6572206973206e6f7420746865206f776e6572604482015290519081900360640190fd5b600080546040516001600160a01b03909116907f8be0079c531659141344cd1fd0a4f28419497f9722a3daafe3b4186f6b6457e0908390a3600080546001600160a01b0319169055565b6001600160a01b039081166000908152600460205260409020541690565b6000546001600160a01b031690565b6002546001600160a01b031681565b6002600154141562000e6f576040805162461bcd60e51b815260206004820152601f60248201527f5265656e7472616e637947756172643a207265656e7472616e742063616c6c00604482015290519081900360640190fd5b60026001556001600160a01b03861662000e9d5760405162461bcd60e51b81526004016200035c9062001826565b6000851162000ec05760405162461bcd60e51b81526004016200035c90620017ef565b42841162000ee25760405162461bcd60e51b81526004016200035c90620018b3565b6000821162000f055760405162461bcd60e51b81526004016200035c9062001a83565b60008686868660405162000f199062001465565b62000f28949392919062001965565b604051809103906000f08015801562000f45573d6000803e3d6000fd5b509050604051806101000160405280826001600160a01b03168152602001886001600160a01b031681526020018781526020018681526020018515158152602001600015158152602001848152602001836001600160a01b031681525060036000836001600160a01b03166001600160a01b0316815260200190815260200160002060008201518160000160006101000a8154816001600160a01b0302191690836001600160a01b0316021790555060208201518160010160006101000a8154816001600160a01b0302191690836001600160a01b03160217905550604082015181600201556060820151816003015560808201518160040160006101000a81548160ff02191690831515021790555060a08201518160040160016101000a81548160ff02191690831515021790555060c0820151816005015560e08201518160060160006101000a8154816001600160a01b0302191690836001600160a01b031602179055509050508060046000336001600160a01b03166001600160a01b0316815260200190815260200160002060006101000a8154816001600160a01b0302191690836001600160a01b03160217905550806001600160a01b031663475a9fa933856040518363ffffffff1660e01b8152600401620011299291906200161d565b600060405180830381600087803b1580156200114457600080fd5b505af115801562001159573d6000803e3d6000fd5b50505050336001600160a01b0316816001600160a01b03167f33ea2fb37c02fb07b7a42210fcf090729e630a0eecc582fd9449259c257dcecf8989898989604051620011aa9594939291906200167e565b60405180910390a35050600180555050505050565b620011c9620012da565b6001600160a01b0316620011dc62000df8565b6001600160a01b03161462001238576040805162461bcd60e51b815260206004820181905260248201527f4f776e61626c653a2063616c6c6572206973206e6f7420746865206f776e6572604482015290519081900360640190fd5b6001600160a01b0381166200127f5760405162461bcd60e51b8152600401808060200182810382526026815260200180620032f66026913960400191505060405180910390fd5b600080546040516001600160a01b03808516939216917f8be0079c531659141344cd1fd0a4f28419497f9722a3daafe3b4186f6b6457e091a3600080546001600160a01b0319166001600160a01b0392909216919091179055565b3390565b600081620012ef575060016200141a565b6001600160a01b038316620013185760405162461bcd60e51b81526004016200035c9062001912565b600080856001600160a01b031663a9059cbb60e01b8686604051602401620013429291906200161d565b60408051601f198184030181529181526020820180516001600160e01b03166001600160e01b0319909416939093179092529051620013829190620015cd565b6000604051808303816000865af19150503d8060008114620013c1576040519150601f19603f3d011682016040523d82523d6000602084013e620013c6565b606091505b5091509150818015620013f4575080511580620013f4575080806020019051810190620013f491906200153b565b620014135760405162461bcd60e51b81526004016200035c906200179c565b6001925050505b9392505050565b6040805161010081018252600080825260208201819052918101829052606081018290526080810182905260a0810182905260c0810182905260e081019190915290565b6118208062001ad683390190565b80356001600160a01b03811681146200058157600080fd5b6000602082840312156200149d578081fd5b6200141a8262001473565b60008060408385031215620014bb578081fd5b620014c68362001473565b946020939093013593505050565b60008060008060008060c08789031215620014ed578182fd5b620014f88762001473565b955060208701359450604087013593506060870135620015188162001ac3565b9250608087013591506200152f60a0880162001473565b90509295509295509295565b6000602082840312156200154d578081fd5b81516200141a8162001ac3565b6000602082840312156200156c578081fd5b5051919050565b6000806040838503121562001586578182fd5b505080516020909101519092909150565b600060208284031215620015a9578081fd5b815160ff811681146200141a578182fd5b6001600160a01b03169052565b15159052565b60008251815b81811015620015ef5760208186018101518583015201620015d3565b81811115620015fe5782828501525b509190910192915050565b6001600160a01b0391909116815260200190565b6001600160a01b03929092168252602082015260400190565b6001600160a01b0398891681529688166020880152604087019590955260608601939093529015156080850152151560a084015260c083015290911660e08201526101000190565b6001600160a01b039590951685526020850193909352604084019190915215156060830152608082015260a00190565b602080825282518282018190526000919060409081850190868401855b828110156200175857815180516001600160a01b03908116865287820151168786015285810151868601526060808201519086015260808082015115159086015260a0808201516200172087830182620015c7565b505060c0818101519086015260e090810151906200174181870183620015ba565b5050610100939093019290850190600101620016cb565b5091979650505050505050565b901515815260200190565b60208082526012908201527113dc1d1a5bdb881b9bdd08195e1c1a5c995960721b604082015260600190565b6020808252600f908201526e151c985b9cd9995c8819985a5b1959608a1b604082015260600190565b60208082526010908201526f5374616c65207072696365206461746160801b604082015260600190565b6020808252601f908201527f4578657263697365207072696365206d75737420626520706f73697469766500604082015260600190565b60208082526018908201527f496e76616c696420636f6c6c61746572616c2061737365740000000000000000604082015260600190565b6020808252600e908201526d24b73b30b634b21037b83a34b7b760911b604082015260600190565b602080825260149082015273496e73756666696369656e742062616c616e636560601b604082015260600190565b6020808252600e908201526d496e76616c69642065787069727960901b604082015260600190565b6020808252601a908201527f43616e6e6f7420636c65616e20616374697665206f7074696f6e000000000000604082015260600190565b602080825260119082015270125b9d985b1a59081c9958da5c1a595b9d607a1b604082015260600190565b6020808252600e908201526d13dc1d1a5bdb88195e1c1a5c995960921b604082015260600190565b60c0808252601190820152702232b934bb30ba34bb329027b83a34b7b760791b60e0820152610100602082018190526003908201526213d41560ea1b6101208201526001600160a01b0394909416604085015260608401929092526080830152151560a08201526101400190565b602080825260119082015270105b1c9958591e48195e195c98da5cd959607a1b604082015260600190565b6020808252600e908201526d496e76616c6964206f7261636c6560901b604082015260600190565b60208082526014908201527313dc9858db19481b9bdd081d985b1a59185d195960621b604082015260600190565b60208082526015908201527413dc1d1a5bdb88191bd95cc81b9bdd08195e1a5cdd605a1b604082015260600190565b60208082526017908201527f416d6f756e74206d75737420626520706f736974697665000000000000000000604082015260600190565b90815260200190565b801515811462001ad257600080fd5b5056fe6101206040523480156200001257600080fd5b5060405162001820380380620018208339810160408190526200003591620002d7565b8551869086906200004e90600390602085019062000190565b5080516200006490600490602084019062000190565b50506005805460ff19166012179055506000620000806200018c565b60058054610100600160a81b0319166101006001600160a01b03841690810291909117909155604051919250906000907f8be0079c531659141344cd1fd0a4f28419497f9722a3daafe3b4186f6b6457e0908290a3506001600160a01b038416620001085760405162461bcd60e51b8152600401620000ff90620003c3565b60405180910390fd5b600083116200012b5760405162461bcd60e51b8152600401620000ff906200038c565b4282116200014d5760405162461bcd60e51b8152600401620000ff90620003fa565b6001600160601b0319606094851b1660805260a09290925260c052151560f81b60e05233901b6101005250506005805460ff60a81b1916905562000431565b3390565b828054600181600116156101000203166002900490600052602060002090601f016020900481019282620001c8576000855562000213565b82601f10620001e357805160ff191683800117855562000213565b8280016001018555821562000213579182015b8281111562000213578251825591602001919060010190620001f6565b506200022192915062000225565b5090565b5b8082111562000221576000815560010162000226565b600082601f8301126200024d578081fd5b81516001600160401b03808211156200026257fe5b6040516020601f8401601f19168201810183811183821017156200028257fe5b604052838252858401810187101562000299578485fd5b8492505b83831015620002bc57858301810151828401820152918201916200029d565b83831115620002cd57848185840101525b5095945050505050565b60008060008060008060c08789031215620002f0578182fd5b86516001600160401b038082111562000307578384fd5b620003158a838b016200023c565b975060208901519150808211156200032b578384fd5b506200033a89828a016200023c565b604089015190965090506001600160a01b038116811462000359578283fd5b80945050606087015192506080870151915060a087015180151581146200037e578182fd5b809150509295509295509295565b6020808252601f908201527f4578657263697365207072696365206d75737420626520706f73697469766500604082015260600190565b60208082526018908201527f496e76616c696420636f6c6c61746572616c2061737365740000000000000000604082015260600190565b6020808252601c908201527f457870697279206d75737420626520696e207468652066757475726500000000604082015260600190565b60805160601c60a05160c05160e05160f81c6101005160601c61139c62000484600039806102c6525080610a4f52508061051652806105ef52806108525250806107a95250806108f2525061139c6000f3fe608060405234801561001057600080fd5b506004361061014d5760003560e01c8063721a37d2116100c3578063a457c2d71161007c578063a457c2d714610268578063a9059cbb1461027b578063aabaecd61461028e578063dd62ed3e14610296578063f2fde38b146102a9578063f71979bd146102bc5761014d565b8063721a37d21461022d5780638117889a146102405780638da5cb5b1461024857806392fe281a1461025057806395d89b411461025857806399bc0aea146102605761014d565b8063313ce56711610115578063313ce567146101cd57806339509351146101e2578063475a9fa9146101f557806368a5c4971461020a57806370a0823114610212578063715018a6146102255761014d565b806302d05d3f1461015257806306fdde0314610170578063095ea7b31461018557806318160ddd146101a557806323b872dd146101ba575b600080fd5b61015a6102c4565b60405161016791906110c9565b60405180910390f35b6101786102e8565b60405161016791906110e8565b6101986101933660046110a0565b61037e565b60405161016791906110dd565b6101ad61039b565b60405161016791906111c5565b6101986101c8366004611065565b6103a1565b6101d5610428565b60405161016791906111ce565b6101986101f03660046110a0565b610431565b6102086102033660046110a0565b61047f565b005b610208610561565b6101ad610220366004611019565b61066a565b610208610689565b61020861023b3660046110a0565b61073b565b6101ad6107a7565b61015a6107cb565b6101986107df565b6101786107ef565b6101ad610850565b6101986102763660046110a0565b610874565b6101986102893660046110a0565b6108dc565b61015a6108f0565b6101ad6102a4366004611033565b610914565b6102086102b7366004611019565b61093f565b610198610a4d565b7f000000000000000000000000000000000000000000000000000000000000000081565b60038054604080516020601f60026000196101006001881615020190951694909404938401819004810282018101909252828152606093909290918301828280156103745780601f1061034957610100808354040283529160200191610374565b820191906000526020600020905b81548152906001019060200180831161035757829003601f168201915b5050505050905090565b600061039261038b610a71565b8484610a75565b50600192915050565b60025490565b60006103ae848484610b61565b61041e846103ba610a71565b61041985604051806060016040528060288152602001611290602891396001600160a01b038a166000908152600160205260408120906103f8610a71565b6001600160a01b031681526020810191909152604001600020549190610cbc565b610a75565b5060019392505050565b60055460ff1690565b600061039261043e610a71565b84610419856001600061044f610a71565b6001600160a01b03908116825260208083019390935260409182016000908120918c168152925290205490610d53565b610487610a71565b6001600160a01b03166104986107cb565b6001600160a01b0316146104e1576040805162461bcd60e51b815260206004820181905260248201526000805160206112b8833981519152604482015290519081900360640190fd5b600554600160a81b900460ff16156105145760405162461bcd60e51b815260040161050b9061113b565b60405180910390fd5b7f000000000000000000000000000000000000000000000000000000000000000042106105535760405162461bcd60e51b815260040161050b90611172565b61055d8282610db4565b5050565b610569610a71565b6001600160a01b031661057a6107cb565b6001600160a01b0316146105c3576040805162461bcd60e51b815260206004820181905260248201526000805160206112b8833981519152604482015290519081900360640190fd5b600554600160a81b900460ff16156105ed5760405162461bcd60e51b815260040161050b9061119a565b7f0000000000000000000000000000000000000000000000000000000000000000421061062c5760405162461bcd60e51b815260040161050b90611172565b6005805460ff60a81b1916600160a81b1790556040517f841f30b75b734e79bd5564b636a7dac06016c458113586c9a310fdd91d6a6eea90600090a1565b6001600160a01b0381166000908152602081905260409020545b919050565b610691610a71565b6001600160a01b03166106a26107cb565b6001600160a01b0316146106eb576040805162461bcd60e51b815260206004820181905260248201526000805160206112b8833981519152604482015290519081900360640190fd5b60055460405160009161010090046001600160a01b0316907f8be0079c531659141344cd1fd0a4f28419497f9722a3daafe3b4186f6b6457e0908390a360058054610100600160a81b0319169055565b610743610a71565b6001600160a01b03166107546107cb565b6001600160a01b03161461079d576040805162461bcd60e51b815260206004820181905260248201526000805160206112b8833981519152604482015290519081900360640190fd5b61055d8282610ea4565b7f000000000000000000000000000000000000000000000000000000000000000081565b60055461010090046001600160a01b031690565b600554600160a81b900460ff1681565b60048054604080516020601f60026000196101006001881615020190951694909404938401819004810282018101909252828152606093909290918301828280156103745780601f1061034957610100808354040283529160200191610374565b7f000000000000000000000000000000000000000000000000000000000000000081565b6000610392610881610a71565b846104198560405180606001604052806025815260200161134260259139600160006108ab610a71565b6001600160a01b03908116825260208083019390935260409182016000908120918d16815292529020549190610cbc565b60006103926108e9610a71565b8484610b61565b7f000000000000000000000000000000000000000000000000000000000000000081565b6001600160a01b03918216600090815260016020908152604080832093909416825291909152205490565b610947610a71565b6001600160a01b03166109586107cb565b6001600160a01b0316146109a1576040805162461bcd60e51b815260206004820181905260248201526000805160206112b8833981519152604482015290519081900360640190fd5b6001600160a01b0381166109e65760405162461bcd60e51b81526004018080602001828103825260268152602001806112226026913960400191505060405180910390fd5b6005546040516001600160a01b0380841692610100900416907f8be0079c531659141344cd1fd0a4f28419497f9722a3daafe3b4186f6b6457e090600090a3600580546001600160a01b0390921661010002610100600160a81b0319909216919091179055565b7f000000000000000000000000000000000000000000000000000000000000000081565b3390565b6001600160a01b038316610aba5760405162461bcd60e51b815260040180806020018281038252602481526020018061131e6024913960400191505060405180910390fd5b6001600160a01b038216610aff5760405162461bcd60e51b81526004018080602001828103825260228152602001806112486022913960400191505060405180910390fd5b6001600160a01b03808416600081815260016020908152604080832094871680845294825291829020859055815185815291517f8c5be1e5ebec7d5bd14f71427d1e84f3dd0314c0f7b2291e5b200ac8c7c3b9259281900390910190a3505050565b6001600160a01b038316610ba65760405162461bcd60e51b81526004018080602001828103825260258152602001806112f96025913960400191505060405180910390fd5b6001600160a01b038216610beb5760405162461bcd60e51b81526004018080602001828103825260238152602001806111dd6023913960400191505060405180910390fd5b610bf6838383610fa0565b610c338160405180606001604052806026815260200161126a602691396001600160a01b0386166000908152602081905260409020549190610cbc565b6001600160a01b038085166000908152602081905260408082209390935590841681522054610c629082610d53565b6001600160a01b038084166000818152602081815260409182902094909455805185815290519193928716927fddf252ad1be2c89b69c2b068fc378daa952ba7f163c4a11628f55a4df523b3ef92918290030190a3505050565b60008184841115610d4b5760405162461bcd60e51b81526004018080602001828103825283818151815260200191508051906020019080838360005b83811015610d10578181015183820152602001610cf8565b50505050905090810190601f168015610d3d5780820380516001836020036101000a031916815260200191505b509250505060405180910390fd5b505050900390565b600082820183811015610dad576040805162461bcd60e51b815260206004820152601b60248201527f536166654d6174683a206164646974696f6e206f766572666c6f770000000000604482015290519081900360640190fd5b9392505050565b6001600160a01b038216610e0f576040805162461bcd60e51b815260206004820152601f60248201527f45524332303a206d696e7420746f20746865207a65726f206164647265737300604482015290519081900360640190fd5b610e1b60008383610fa0565b600254610e289082610d53565b6002556001600160a01b038216600090815260208190526040902054610e4e9082610d53565b6001600160a01b0383166000818152602081815260408083209490945583518581529351929391927fddf252ad1be2c89b69c2b068fc378daa952ba7f163c4a11628f55a4df523b3ef9281900390910190a35050565b6001600160a01b038216610ee95760405162461bcd60e51b81526004018080602001828103825260218152602001806112d86021913960400191505060405180910390fd5b610ef582600083610fa0565b610f3281604051806060016040528060228152602001611200602291396001600160a01b0385166000908152602081905260409020549190610cbc565b6001600160a01b038316600090815260208190526040902055600254610f589082610fa5565b6002556040805182815290516000916001600160a01b038516917fddf252ad1be2c89b69c2b068fc378daa952ba7f163c4a11628f55a4df523b3ef9181900360200190a35050565b505050565b600082821115610ffc576040805162461bcd60e51b815260206004820152601e60248201527f536166654d6174683a207375627472616374696f6e206f766572666c6f770000604482015290519081900360640190fd5b50900390565b80356001600160a01b038116811461068457600080fd5b60006020828403121561102a578081fd5b610dad82611002565b60008060408385031215611045578081fd5b61104e83611002565b915061105c60208401611002565b90509250929050565b600080600060608486031215611079578081fd5b61108284611002565b925061109060208501611002565b9150604084013590509250925092565b600080604083850312156110b2578182fd5b6110bb83611002565b946020939093013593505050565b6001600160a01b0391909116815260200190565b901515815260200190565b6000602080835283518082850152825b81811015611114578581018301518582016040015282016110f8565b818111156111255783604083870101525b50601f01601f1916929092016040019392505050565b60208082526018908201527f4f7074696f6e20616c7265616479206578657263697365640000000000000000604082015260600190565b6020808252600e908201526d13dc1d1a5bdb88195e1c1a5c995960921b604082015260600190565b602080825260119082015270105b1c9958591e48195e195c98da5cd959607a1b604082015260600190565b90815260200190565b60ff9190911681526020019056fe45524332303a207472616e7366657220746f20746865207a65726f206164647265737345524332303a206275726e20616d6f756e7420657863656564732062616c616e63654f776e61626c653a206e6577206f776e657220697320746865207a65726f206164647265737345524332303a20617070726f766520746f20746865207a65726f206164647265737345524332303a207472616e7366657220616d6f756e7420657863656564732062616c616e636545524332303a207472616e7366657220616d6f756e74206578636565647320616c6c6f77616e63654f776e61626c653a2063616c6c6572206973206e6f7420746865206f776e657245524332303a206275726e2066726f6d20746865207a65726f206164647265737345524332303a207472616e736665722066726f6d20746865207a65726f206164647265737345524332303a20617070726f76652066726f6d20746865207a65726f206164647265737345524332303a2064656372656173656420616c6c6f77616e63652062656c6f77207a65726fa2646970667358221220133d1d976987271ebce22e5cf5840476170ab19a26eb9a4741c4b8ad75f0e5c564736f6c634300070600334f776e61626c653a206e6577206f776e657220697320746865207a65726f2061646472657373a2646970667358221220daeaf4583f4ad76597472d006cc4a9f8bf809e03d8b0d3aebdbd7ee6e873395364736f6c63430007060033",
  "linkReferences": {},
  "deployedLinkReferences": {}
}